:020000040000FA
:100000007802001069010000710100007301000016
:100010007501000077010000790100000000000078
:100020000000000000000000000000007B01000054
:100030007D010000000000007F0100008101000040
:1000400083010000830100008301000083010000A0
:100050008301000083010000830100008301000090
:100060008301000083010000830100008301000080
:100070008301000083010000830100008301000070
:100080008301000083010000830100008301000060
:100090008301000083010000830100008301000050
:1000A0008301000083010000830100008301000040
:1000B0008301000083010000830100008301000030
:1000C00083010000830100008301000000F002F8BA
:1000D00000F03AF80AA090E8000C82448344AAF1A8
:1000E0000107DA4501D100F02FF8AFF2090EBAE8A6
:1000F0000F0013F0010F18BFFB1A43F0010318475C
:100100001801000038010000103A24BF78C878C1F7
:10011000FAD8520724BF30C830C144BF04680C600D
:10012000704700000023002400250026103A28BF55
:1001300078C1FBD8520728BF30C148BF0B60704759
:100140001FB51FBD10B510BD00F02FF81146FFF709
:10015000F7FF00F0C8FB00F04DF803B4FFF7F2FF23
:1001600003BC00F051F800000948804709480047E7
:10017000FEE7FEE7FEE7FEE7FEE7FEE7FEE7FEE757
:10018000FEE7FEE704480549034A054B70470000B7
:1001900041040000CD00000078000010780200103B
:1001A00078000010704770477047754600F028F8D7
:1001B000AE4605006946534620F00700854618B054
:1001C00020B5FFF7DFFFBDE820404FF000064FF0FD
:1001D00000074FF000084FF0000B21F00701AC467C
:1001E000ACE8C009ACE8C009ACE8C009ACE8C0099B
:1001F0008D4670470446AFF300802046FFF7ADFF01
:10020000004870471400001001491820ABBEFEE7FB
:100210002600020070470000740900000000001072
:1002200014000000080100008809000014000010FC
:100230006402000024010000000000000000000033
:1002400000000000000000000000000000000000AE
:10025000000000000000000000000000000000009E
:10026000000000000000000000000000000000008E
:10027000000000000000000000000000000000007E
:10028000000000000000000000000000000000006E
:10029000000000000000000000000000000000005E
:1002A000000000000000000000000000000000004E
:1002B000000000000000000000000000000000003E
:1002C000000000000000000000000000000000002E
:1002D000000000000000000000000000000000001E
:1002E000000000000000000000000000000000000E
:1002F000000000000000000000000000FFFFFFFF02
:1003000091480068C0F30160032868D18F480068F5
:1003100010F0030006D0012823D002283FD0032884
:100320005CD100E000BF88480068C0F30E0000F117
:1003300001004FEA4000864900FB01F08549D1F8F1
:100340008810C1F3074101F10101B0FBF1F18248CE
:100350000068C0B200F10100B1FBF0F07F49086015
:100360003CE079480068C0F30E0000F101004FEA5C
:1003700040007B4900FB01F07649D1F88810C1F3B9
:10038000074101F10101B0FBF1F173480068C0B20F
:1003900000F10100B1FBF0F0704908601EE06A480E
:1003A0000068C0F30E0000F101004FEA40004FF476
:1003B000FA4100FB01F06749D1F88810C1F3074109
:1003C00001F10101B0FBF1F163480068C0B200F136
:1003D0000100B1FBF0F06149086000BF2FE05B480D
:1003E000006810F0030006D0012810D0022819D0B0
:1003F000032823D100E000BF57480068C0B200F1D5
:1004000001005349B1FBF0F05449086016E052482E
:100410000068C0B200F101005149B1FBF0F04F4952
:1004200008600BE04C480068C0B200F101004FF4D6
:10043000FA41B1FBF0F04949086000BF00BF7047C6
:1004400020204849086000BF4648006810F0400F6F
:10045000FAD00320404908604FF001003D49C1F83F
:100460000C014148414908604FF0AA00404908602A
:100470004FF0550008604FF001003E4908604FF012
:10048000AA003B4908604FF055003249C1F88C0082
:1004900000BF2D48006810F0806FFAD00320354966
:1004A00008604FF0AA002B49C1F88C004FF05500AE
:1004B0002F49086000BF2448006810F0407FFAD040
:1004C00023202D4908604FF0AA002249C1F8AC0052
:1004D0004FF05500294908604FF001002849086095
:1004E0004FF0AA00254908604FF055001949C1F89E
:1004F000AC0000BF2348006810F4806FFAD00320DE
:100500001F4908604FF0AA001249C1F8AC004FF033
:1005100055001A49086000BF1A48006810F4407F6F
:10052000FAD00020184908600A49C1F8AC01174800
:10053000174908604FF000001649086043F23A007E
:10054000044908607047000088C00F400CC10F408C
:1005500000093D0000C00F4004C10F400000001022
:10056000001BB700A0C10F406300050084C00F400E
:100570008CC00F4080C00F40A4C00F40ACC00F40E3
:10058000A0C00F40A8C00F40A8C10F40DE872804BC
:10059000C4C00F40C8C10F4001B502E00098401E22
:1005A000009000980028F9D108BDF021EA4AD165F1
:1005B00010F0800F01D08021916510F0400F02D023
:1005C0004021E54A916510F0200F02D02021E24A37
:1005D000916510F0100F02D01021DF4A916570472D
:1005E00010B504460120DC4988652046FFF7DDFF91
:1005F0000420D94988659620FFF7CEFF0420D6490C
:10060000C8659620FFF7C8FF2107080EFFF7CDFF4A
:100610000420D14988659620FFF7BEFF0420CE490B
:10062000C86540F2DC50FFF7B7FF10BD10B50446B7
:100630000120C949C8652046FFF7B7FF0420C64915
:1006400088659620FFF7A8FF0420C349C865962057
:10065000FFF7A2FF2107080EFFF7A7FF0420BE49FE
:1006600088659620FFF798FF0420BB49C86540F2D3
:10067000DC50FFF791FF10BD00B5F720B6490864C4
:100680000220C86540F2DC50FFF786FF0020FFF72C
:100690008CFF3020FFF789FF0420AF498865962042
:1006A000FFF77AFF0420AC49C86540F2DC50FFF741
:1006B00073FF3020FFF779FF0420A7498865962053
:1006C000FFF76AFF0420A449C86540F2DC50FFF739
:1006D00063FF2020FFF769FF04209F49886596206B
:1006E000FFF75AFF04209C49C86540F2DC50FFF731
:1006F00053FF2820FFF79AFF0C20FFF797FF40F2E7
:10070000DC50FFF749FF00BD70B506460C46601E81
:10071000C4B2012E06D0022E06D0032E08D0042E1D
:100720000ED109E0E5B20DE004F14000C5B209E0E8
:1007300004F11400C5B205E004F15400C5B201E0B3
:10074000E5B200BF00BF45F08000FFF76FFF40F249
:10075000DC50FFF721FF70BDF0B505460E46402086
:1007600040EAC600C7B2002411E038467A1CD7B26E
:10077000FFF75CFF40F2DC50FFF70EFF285DFFF74C
:100780002FFF40F2DC50FFF707FF601CC4B2082CBB
:10079000EBDBF0BD00B50120FFF748FF40F2DC5075
:1007A000FFF7FAFE0220FFF741FF6C48FFF7F4FE67
:1007B00000BD30B50446002508E01E20FFF736FFD7
:1007C00040F2DC50FFF7E8FE681CC5B2A542F4DB3E
:1007D00030BD30B50446002508E01820FFF726FF9D
:1007E00040F2DC50FFF7D8FE681CC5B2A542F4DB2E
:1007F00030BD2DE9FC4105464FF00008002427E0FC
:100800000126C4F1040703E006EB860046007F1EC4
:10081000002FF9DC95FBF6F0C0B20DF80400B542EC
:1008200004DBB8F1000F01D14FF001081DF80400FE
:1008300000FB16551DF804003030C0B20DF804005E
:10084000B8F1000F03D01DF80400FFF7C9FE641CC7
:10085000052CD5DBBDE8FC8130B505462C4604B936
:1008600030BD03E02078FFF7BBFE641C2078002831
:10087000F8D100BFF4E700B50820FFF7D7FE40F23B
:10088000DC50FFF789FE00BD00B50C20FFF7CEFE5F
:1008900040F2DC50FFF780FE00BD00B50C20FFF7F2
:1008A000C5FE40F2DC50FFF777FE00BD00B50E201C
:1008B000FFF7BCFE40F2DC50FFF76EFE00BD00B556
:1008C0000F20FFF7B3FE40F2DC50FFF765FE00BDDE
:1008D0000146002200E0521C40F635404843B2EB8E
:1008E000401FF8DB7047FFF7C7FEFFF753FF31E00B
:1008F00002210020FFF708FF19A0FFF7ADFF02213A
:100900000846FFF701FF002407E01949085DFFF7DB
:1009100067FE2320FFF7DCFF641C0E2CF5DBC820EC
:10092000FFF7D6FF002413E0601CC1B20120FFF7DF
:10093000EBFE2020FFF754FE601CC1B20220FFF73F
:10094000E3FE2020FFF74CFE1920FFF7C1FF641CD7
:10095000102CE9DBCCE7000000C0092040420F006A
:10096000456C656374726F6C61622E697200000081
:100970000400001000E1F5052A43484152204C4391
:0809800044205465737400006B
:04000005000000CD2A
:00000001FF
